:020000041000EA
:1000000000B5324B212058609868022188439860DF
:10001000D860186158612E4B002199600221596106
:100020000121F02299502B49196001219960352056
:1000300000F044F80222904214D00621196600F024
:1000400034F8196E01211966002018661A6600F04E
:100050002CF8196E196E196E052000F02FF8012189
:100060000842F9D1002199601B49196000215960AB
:100070001A491B48016001219960EB211966A021F2
:10008000196600F012F800219960164914480160C1
:100090000121996001BC002800D000471248134993
:1000A000086003C880F30888084703B5996A0420EC
:1000B0000142FBD001200142F8D103BD02B5186610
:1000C0001866FFF7F2FF186E186E02BD00000240BE
:1000D000000000180000070000035F00212200005C
:1000E000F4000018222000A00001001008ED00E03C
:1000F00000000000000000000000000074B24E7A12
:1001000000200420F7010010C3010010C5010010F9
:10011000C1010010C1010010C1010010C101001097
:10012000C1010010C1010010C1010010C701001081
:10013000C1010010C1010010C9010010CB01001065
:10014000CD010010CD010010CD010010CD01001037
:10015000CD010010CD010010CD010010CD01001027
:10016000CD010010CD010010CD010010CD01001017
:10017000CD010010CD010010CD010010CD01001007
:10018000CD010010CD010010CD010010CD010010F7
:10019000CD010010CD010010CD010010CD010010E7
:1001A000CD010010CD010010CD010010CD010010D7
:1001B000CD010010CD010010CD010010CD010010C7
:1001C00000BE00BE00BE00BE00BE00BE00F04BF888
:1001D000103800BEF2EB8871ECA9011014AA0110CE
:1001E0003402001090A31AE700202149086006C8D5
:1001F00081F3088810471F48006800282FD10DA4FC
:100200000ECC002902D000F012F8F9E71A491B4A77
:10021000002000E001C19142FCD1194988471949E9
:1002200088471949884700BEFDE701C901C29A42C3
:10023000FBD3704714AA0110C00000208C0F0020CF
:10024000E0B801100000042000000420E0B8011014
:1002500000100420001004200000000070470B482C
:100260000AF060FD0047EFF30580C0B27047000060
:1002700008ED00E0000000D0900F0020342B00209B
:10028000899000104D180010AD91001057560000D5
:1002900006005250ABB36053D88A0110060052508A
:1002A000861C0302E88A0110060052505422A29DC7
:1002B000F88A011005005250DE65F468E0B80110BC
:1002C000F8B5C0460448054B10B5834203D0044B33
:1002D000002B00D0984710BD8C0F00208C0F002001
:1002E0000000000006480749091A8B10C90FC918F9
:1002F00010B5491003D0044B002B00D0984710BD17
:100300008C0F00208C0F00200000000010B5074C5F
:100310002378002B09D1FFF7D5FF054B002B02D026
:10032000044800E000BF0123237010BD9810002096
:1003300000000000A8630110054B10B5002B03D08E
:100340000449054800E000BFFFF7CCFF10BDC046E0
:10035000000000009C100020A863011070B58AB056
:100360006C4600210500242201A80BF02DFC220080
:10037000094B43CB43C203CB03C21320290068447B
:1003800010F08CFC210005480BF0C2FE962008F00E
:10039000E3F90AB070BDC046A8630110BC63011048
:1003A00010B504480BF0B4FE034B1B6858680FF0FF
:1003B000E1FE10BDCC630110B805002010B5002986
:1003C00007D0010007480BF0A3FE962008F0C4F9FF
:1003D00010BD010004480BF09BFE9620400008F081
:1003E000BBF9F5E7BC630110DC63011084B0F0B524
:1003F0005746DE464E464546E0B589B01700149292
:1004000000229A469046159383468946002301228E
:100410001391002F29DD4B4500DB0022934200DBC6
:1004200095E04346002B28D153461E68012F3ED04D
:100430000024002C39D1306871680022514B0AF039
:100440007DFF00282DD00825012475190022286879
:10045000696800230AF072FF002822D00134A74205
:10046000E7DC01230122002FD5DC4B4500DB002215
:1004700093426CDA4346002B21D000230021152241
:1004800001AD02A801930BF09FFB2A003E4B13CB5A
:1004900013C212201B8859461380684410F0FEFBDB
:1004A0004CE0012398460123DCE7E500CDE700227C
:1004B00030687168334B0AF041FF002827D00023D1
:1004C0001522002101AD02A801930BF07DFB28004D
:1004D00010F060FD04002C490E2228180BF07AFB66
:1004E00020000E305946281810F0D8FB2900274864
:1004F0000BF00EFE962008F02FF909B03CBC904698
:100500009946A246AB46F0BC08BC04B01847434627
:100510001522002101AD02A801930BF055FB280024
:1005200010F038FD040018490E2228180BF052FB79
:1005300020000E305946281810F0B0FB290014484E
:100540000BF0E6FD9620400008F006F9D5E7002103
:10055000152201AD02A801910BF036FB280010F026
:1005600019FD04000E22084928180BF033FB200067
:100570000E305946281810F091FB4346002BDDD170
:10058000B4E7C0460000F03F00640110BC630110F6
:10059000DC63011084B0F0B54546DE4657464E4652
:1005A000E0B599B09046039023912492259302914F
:1005B000002900DCB9E09A4600239B469946019346
:1005C00043460024002B00DC79E04B46002B02D090
:1005D0005B46002B1ED153461B68E5009C466544D4
:1005E00000222E686F68704B300039000AF0C4FE9C
:1005F0000022002856D06D4B300039000AF0A6FECC
:1006000000220023002867D1300039000AF096FE4E
:1006100000284ED000232422002104AC05A8049316
:100620000BF0D2FA200010F0B5FC05001222604950
:1006300020180BF0CFFA280012300399201810F080
:100640002DFB01239B4621005A480BF061FD9620AB
:10065000400008F081F8002124220EAC0FA80BF016
:10066000B3FA2200544B23CB23C21B8836201380BD
:1006700004AB9C460399604410F010FB5B462100DC
:10068000002B4AD14D480BF043FD962008F064F84A
:1006900019B03CBC90469946A246AB46F0BC08BC9B
:1006A00004B018470023300039000AF047FE002844
:1006B000B0D1012399460134A04500DD85E7019BB7
:1006C000029A013301939A4252D04B46002B20D01C
:1006D0005B46002B1DD09DE7300039000AF02EFE4E
:1006E0000028E8D00134A04507DD01239B464B4696
:1006F0000835002B00D173E78CE7019B029A013388
:100700000193934232D04B46002B00D082E7012365
:100710009B4604239C46E24452E726480BF0F8FC33
:100720009620400008F018F8B2E7002300212422A8
:1007300004AC05A804930BF047FA22001C4B23CB12
:1007400023C21968122011609B88938004AB9C46D9
:100750000399604410F0A2FA00239B462100174839
:100760000BF0D6FC962007F0F7FF74E701239B46B9
:1007700000232422002104AC05A804930BF024FAE2
:10078000200010F007FC05001222094920180BF088
:1007900021FA280012300399201810F07FFA4B46F6
:1007A000002BDBD04FE7C0460000F0BF0000F03F59
:1007B00010640110DC63011024640110BC6301109B
:1007C00084B0F0B55746DE464E464546E0B589B0A2
:1007D0001700149200229A46904615938346894644
:1007E000002301221391002F29DD4B4500DB00225D
:1007F000934200DB95E04346002B28D153461E6808
:10080000012F3ED00024002C39D1306871680022BD
:1008100000230AF093FD00282DD108250124751925
:1008200000222868696800230AF088FD002822D089
:100830000134A742E7DC01230122002FD5DC4B4520
:1008400000DB002293426CDA4346002B21D00023C8
:100850000021152201AD02A801930BF0B5F92A0081
:100860003D4B13CB13C212201B885946138068449A
:1008700010F014FA4CE0012398460123DCE7E50070
:10088000CDE700223068716800230AF057FD002888
:1008900027D100231522002101AD02A801930BF0FE
:1008A00093F9280010F076FB04002B490E2228183B
:1008B0000BF090F920000E305946281810F0EEF990
:1008C000290026480BF024FC962007F045FF09B0CC
:1008D0003CBC90469946A246AB46F0BC08BC04B06E
:1008E000184743461522002101AD02A801930BF0E1
:1008F0006BF9280010F04EFB040017490E2228184F
:100900000BF068F920000E305946281810F0C6F98F
:10091000290013480BF0FCFB9620400007F01CFF59
:10092000D5E70021152201AD02A801910BF04CF989
:10093000280010F02FFB04000E22074928180BF0A6
:1009400049F920000E305946281810F0A7F94346FF
:10095000002BDDD1B4E7C04634640110BC63011044
:10096000DC63011084B0F0B55746DE464E4645467E
:10097000E0B589B099461593199B80469A461700B1
:100980008B460023139114920122002F33DD9B45E7
:1009900000DC79E09A425BDD4B461D685346002639
:1009A0001C6822686368286869680AF0C7FC002828
:1009B00062D100231522002102A801930BF004F953
:1009C00001A810F0E7FA040001AB10222F49181813
:1009D0000BF000F901AB20009C460F30414660440B
:1009E00010F05CF901A92A480BF092FB9620400018
:1009F00007F0B2FE22E09B4500DC0022934227DA9A
:100A000000231522002101AD02A801930BF0DCF8B0
:100A1000280010F0BFFA04001C49102228180BF01F
:100A2000D9F820000F304146281810F037F9290076
:100A300018480BF06DFB962007F08EFE09B03CBC09
:100A400090469946A246AB46F0BC08BC04B0184795
:100A500000230021152201AD02A801930BF0B4F888
:100A60002A000A4B13CB13C213201B6841461360A4
:100A7000684410F013F9DAE7013601230835083429
:100A8000BE4200D08DE77FE7002283E74464011077
:100A9000DC630110BC63011084B0F0B54F464646DC
:100AA000D646C0B586B01600109201229846119322
:100AB00007008946002392460F91002E31DD5246F1
:100AC000994500DC72E09A4258DD434600251C68D7
:100AD00000222068616800230AF030FC00285FD102
:100AE00010220021019002A80BF06EF801A810F06E
:100AF00051FA040001AB0C222D4918180BF06AF8CA
:100B000001AB20009C460B303900604410F0C6F861
:100B100001A928480BF0FCFA9620400007F01CFEC3
:100B200023E00122994500DC00229A4226DD0023C1
:100B30001022002101AD02A801930BF045F8280016
:100B400010F028FA04001A490C2228180BF042F879
:100B500020000B303900281810F0A0F829001648A2
:100B60000BF0D6FA962007F0F7FD06B01CBC9046B5
:100B70009946A246F0BC08BC04B0184700230021E7
:100B8000102201AD02A801930BF01EF82A00084BB9
:100B900013CB13C20F203900684410F07FF8DDE753
:100BA000013501230834B54292D186E700228AE755
:100BB00054640110DC630110BC63011084B0F0B513
:100BC0004E46DE4657464546E0B593B09146039003
:100BD0001D911E921F93009100296ADD1F9B0193B6
:100BE000239B029300239A469B464B46002B5BDDDA
:100BF00025980AF0D9FB5246019B06009D58029B9E
:100C00000F009C5800239846226863683000390022
:100C10000AF051FB02000B00286869680AF08EFB9D
:100C200000282ED15B46009A0133934260DB0021FD
:100C30002E22059005AD06A80AF0C6FF2A003A4B01
:100C400013CB13C213CB13C203CB03C21B882620C2
:100C5000138004AB9C460399604410F01FF82900F0
:100C600032480BF055FA9620400007F075FD13B09E
:100C70003CBC90469946A246AB46F0BC08BC04B0CA
:100C8000184701239C46E04408350834C845BBD1C9
:100C90005B46009A0133934241DA9B4604239C460B
:100CA0004B46E244002BA3DC5B46009A013393429F
:100CB000F3DB00232E22002105AD059306A80AF0E0
:100CC00083FF280010F066F9040022221649281834
:100CD0000AF080FF20002230039928180FF0DEFF71
:100CE000290013480BF014FA962007F035FDBEE7F3
:100CF00005AD2E220021059006A80AF065FF280008
:100D000010F048F904002222074928180AF062FF6F
:100D100020002230039928180FF0C0FF9FE7002120
:100D20002E2205AD0591C9E760640110DC63011056
:100D3000BC63011084B0F0B5DE46454657464E46CA
:100D40008846E0B59FB02E9D0CAC0A9020002991FA
:100D50002A922B93079103950EF000F810ABC1CCAB
:100D6000C1C3226841461A6010A82A000EF0ACF8F0
:100D700042462A9B002A00DCC4E02F981299049076
:100D800003982B9A0B91002844DD002B42DD8C4602
:100D90000592079ADB00920062440691099208933B
:100DA000069B089A1B680193059B1B689C4602934F
:100DB00000236244924698469B46019B049F43440D
:100DC00099461C685D68029E02CF0CCE41440868BB
:100DD00049680AF070FA0B000200290020000AF0AE
:100DE00043FA4B4604000D001C605D60B245EBD138
:100DF00001239C460733E3449C46039BE0445B4548
:100E0000DBD1059A069B04320592099A04330693B6
:100E10009342C5D1339B00279946002398460B9BEC
:100E20009B46039B9A465346002B63DD4B46424646
:100E30009D585B4600269C5822686368286869684C
:100E40000AF07CFA00282FD1079B0137BB4239DC1E
:100E500000230021242214AC15A814930AF0B4FE38
:100E60002200384B23CB23C223CB23C21B683B2059
:100E700013600CAB9C460A9960440FF00FFF2100F1
:100E800031480BF045F99620400007F065FC10A8AA
:100E90000DF06CFF1FB03CBC90469946A246AB4695
:100EA000F0BC08BC04B01847013608350834564574
:100EB000C2D1079B0137BB4220DC0021242214ACA5
:100EC000149124E0002314AC2422002115A81493CB
:100ED0000AF07AFE200010F05DF805001C22194986
:100EE00020180AF077FE28001B300A9920180FF00E
:100EF000D5FEC4E7079B0137BB4203DD04239C46B4
:100F0000E04490E700232422002114AC149315A898
:100F10000AF05AFE200010F03DF805001C22094995
:100F200020180AF057FE28001B300A9920180FF0ED
:100F3000B5FE210005480BF0EBF8962007F00CFCFD
:100F4000A5E7C04684640110DC630110BC63011096
:100F500084B0F0B5DE46454657464E46E0B593B000
:100F60008B46904603901D911E921F93002960DDD1
:100F70001F9B0093239B0193279B029300239A4678
:100F800099464346002B50DD52460027009B9E5851
:100F9000019B9D58029B9C582A686B683068716859
:100FA0000AF062F9226863680AF0C8F900282BD1B8
:100FB0004B4601335B455BDB00212E22059005ADDE
:100FC00006A80AF001FE2A00374B13CB13C203CB4D
:100FD00003C21B781920137004AB9C46039960442C
:100FE0000FF05CFE290031480BF092F8962040008B
:100FF00007F0B2FB13B03CBC90469946A246AB4604
:10100000F0BC08BC04B0184701370836083508346E
:101010004745C1D14B4601339B4540DD99460423EA
:101020009C464346E244002BAEDC4B4601339B45D5
:10103000F4DC00232E22002105AD059306A80AF05A
:10104000C3FD28000FF0A6FF04001522164928183A
:101050000AF0C0FD20001530039928180FF01EFE7D
:10106000290013480BF054F8962007F075FBC1E7F0
:1010700005AD2E220021059006A80AF0A5FD280046
:101080000FF088FF04001522074928180AF0A2FD76
:1010900020001530039928180FF000FEA2E7002168
:1010A0002E2205AD0591C9E7A0640110DC63011093
:1010B000BC63011084B0F0B5DE46454657464E4647
:1010C000E0B593B08B46904603901D911E921F93FE
:1010D00000295BDD1F9B0093239B0193279B0293B9
:1010E00000239A4699464346002B4BDD5246002783
:1010F000009B9E58019B9D58029B9C582A686B68D8
:10110000306871680AF0A7F8226863680AF016F977
:10111000002826D14B4601335B4556DB00212E22A9
:10112000059005AD06A80AF04FFD2A00354B13CBFC
:1011300013C213CB13C20BA803990FF0AFFD290004
:1011400031480AF0E5FF9620400007F005FB13B098
:101150003CBC90469946A246AB46F0BC08BC04B0E5
:10116000184701370836083508344745C6D14B467D
:1011700001339B4540DD994604239C464346E244A7
:10118000002BB3DC4B4601339B45F4DC00232E22BD
:10119000002105AD059306A80AF016FD28000FF002
:1011A000F9FE04001822174928180AF013FD200040
:1011B0001830039928180FF071FD290013480AF020
:1011C000A7FF962007F0C8FAC1E705AD2E2200213F
:1011D000059006A80AF0F8FC28000FF0DBFE0400DA
:1011E0001822084928180AF0F5FC20001830039945
:1011F00028180FF053FDA2E700212E2205AD05911E
:10120000C9E7C046B8640110DC630110BC6301107B
:1012100084B0F0B557464E46DE464546E0B591B03F
:101220008A46914601901B911C921D93002954DD22
:101230001D9B219F9B46002398464B46002B48DD73
:1012400043465A460024DE009B00D558A300FB58B5
:10125000286869689B191A685B680AF06FF80028AB
:101260002BD143460133534556DB00212E220390F8
:1012700003AD04A80AF0A8FC2A00354B13CB13C217
:1012800003CB03C21B881A20138002AB9C46019932
:1012900060440FF003FD29002E480AF039FF962024
:1012A000400007F059FA11B03CBC90469946A2465E
:1012B000AB46F0BC08BC04B01847013408354C45B7
:1012C000C4D1434601339A453DDD98464B46002B39
:1012D000B6DC434601339A45F7DC00232E22002179
:1012E00003AD039304A80AF06FFC28000FF052FE30
:1012F00004001622164928180AF06CFC200016304B
:10130000019928180FF0CAFC290013480AF000FFC1
:10131000962007F021FAC6E703AD2E2200210390A4
:1013200004A80AF051FC28000FF034FE0400162235
:10133000074928180AF04EFC200016300199281899
:101340000FF0ACFCA7E700212E2203AD0391C9E703
:10135000D4640110DC630110BC63011084B0F0B5EB
:10136000C64600B584B001AC060020000F009046D0
:101370001D000B910C920D930EF0A4FD012F27D0B0
:101380004346012B12D04246390019480AF0C0FEEC
:1013900018480AF0BDFE330007CC07C3300004B084
:1013A00004BC9046F0BC08BC04B0184739002000CB
:1013B0000EF08EFD21680029EDDD62682B00CD0066
:1013C000AD1802CB0868496803C2AA42F9D1E2E726
:1013D000414620000EF07CFD01990029DBDD2B68E1
:1013E0006268CD00ED1803CB03C29D42FBD1D2E76A
:1013F000EC640110F464011084B0F0B5DE46574689
:101400004E464546E0B5A5B082463193369B2FA89F
:101410009B4612AB9946426080460AA82F910DF078
:101420009DFC4B460AAA13CA13C3126816AF1A6072
:10143000339C3800349E0DF091FC220001213800CD
:101440000DF042FD002C07DDBA68E4001268341983
:1014500003CE03C2A642FBD11AAC102239002000F1
:101460000AF0B8FB06AE2100102248460AF0B2FB93
:1014700030000EF027FD32000FAB23CA23C30AA8A9
:101480000DF06CFC3B000AAD07CD07C32A681A605B
:101490006A464346049723CB23C21B6813604B461E
:1014A00004330ECB12980DF099FEFB6830000093C8
:1014B00016997A68BB68FFF751FF32000FAB23CA59
:1014C00023C35B46002B12DD002398467668379DC8
:1014D0002A686B683068716809F030FF002836D0E0
:1014E00001239C46E04408360835D845F0D1002356
:1014F000242200211BA81A930AF066FB20000FF09B
:1015000049FD05001D22204920180AF063FB280030
:101510001D30514620180FF0C1FB21001B480AF076
:10152000F7FD962007F018F938000DF01FFC48462B
:101530000DF01CFC0FA80EF0A5FC25B03CBC90469D
:101540009946A246AB46F0BC08BC04B0184700213F
:1015500024221BA80AF038FB22000B4B23CB23C20A
:1015600023CB23C285201968684411601B7951463A
:1015700013710FF093FB210005480AF0C9FD962076
:10158000400007F0E9F8CFE720650110BC630110C7
:10159000DC63011084B0F0B5DE4657464E46454642
:1015A000E0B5A5B03193369B82469B4612AB994677
:1015B0000AAB984618002F9130920DF0CFFB4B46A6
:1015C000424613CA13C3126816AF1A60339E38001E
:1015D000349C0DF0C3FB0122310038000DF074FC87
:1015E000002E09DD2300F600BA68A61910CA03CB45
:1015F00020606160B342F9D11AAC1022390020009A
:101600000AF0E8FA06AE2100102248460AF0E2FA93
:1016100030000EF057FC32000FAB23CA23C3404604
:101620000DF09CFB45463B0007CD07C32A681A60B6
:101630006B464A46049723CA23C312681A6030993E
:10164000319A329B2F980DF0C9FDFB683000009352
:1016500016997A68BB68FFF781FE32000FAB23CA88
:1016600023C35B46002B12DD002398467668379D26
:101670002A686B683068716809F060FE002836D00F
:1016800001239C46E04408360835D845F0D10023B4
:10169000242200211BA81A930AF096FA20000FF0CA
:1016A00079FC05001D22204920180AF093FA280031
:1016B0001D30514620180FF0F1FA21001B480AF0A6
:1016C00027FD962007F048F838000DF04FFB4846FC
:1016D0000DF04CFB0FA80EF0D5FB25B03CBC90469E
:1016E0009946A246AB46F0BC08BC04B0184700219E
:1016F00024221BA80AF068FA22000B4B23CB23C23A
:1017000023CB23C285201968684411601B79514698
:1017100013710FF0C3FA210005480AF0F9FC962076
:10172000400007F019F8CFE740650110BC630110D5
:10173000DC630110F0B58BB0190005001000109AA1
:10174000119B09F088FD49004F083900204A214BC0
:1017500009F0FCFD00281ED000232422002101A84E
:1017600000930AF031FA68460FF014FC04001122CD
:101770001949684411340AF02DFA20002900684400
:101780000FF08CFA694615480AF0C2FC962006F064
:10179000E3FF0BB0F0BD6C460021242201A80AF043
:1017A00013FA22000C4B43CB43C211201968684442
:1017B00011601B79290013710FF070FA210008489D
:1017C0000AF0A6FC9620400006F0C6FFE1E7C046FE
:1017D0003A8C30E28E79453E60650110BC630110A1
:1017E000DC63011084B070B58EB002AC050020003F
:1017F0001391149215930DF0B1FA169B1499159A42
:10180000009413980DF048FF06AC00211A2207A897
:101810000AF0DAF922000B4B43CB43C227201B68A6
:101820002900136068440FF039FA210006480AF0D5
:101830006FFC962006F090FF0EB070BC08BC04B0A0
:101840001847C04674650110BC630110F0B5DE4650
:1018500057464E464546E0B5A5B00AF065FCFEF792
:101860009FFDFEF79DFDF5480AF052FC14A820AC40
:101870000DF074FA14AB1F0025000ECF0EC53B68A7
:10188000C8202B6006F068FF2099ED484B42594173
:10189000C9B2FEF793FD6168EA484B425941C9B2AB
:1018A000FEF78CFDE168E8484B425941C9B2FEF7AA
:1018B00085FDA168E5484B425941C9B2FEF77EFD5E
:1018C00020000DF053FAC82006F046FFE0480AF069
:1018D0001FFCFEF765FDDF480AF01AFCC82006F081
:1018E0003BFFDD480AF014FC14A80DF037FA230082
:1018F0002E0014AA23CA23C33B68C820336006F015
:101900002BFF012201232092219300230122012198
:101910002000A3600DF0D8FA013041424141CF4888
:10192000C9B2FEF74BFD6268209B00211343E268B9
:10193000134303D1A1684B425941C9B2C848FEF7CD
:101940003DFD20000DF012FA0022002120000DF0D4
:10195000BBFA013041424141C248C9B2FEF72EFDF7
:101960006268209B00211343E268134303D1A168FE
:101970004B425941C9B2BC48FEF720FD20000DF092
:10198000F5F90022012120000DF09EFA01304142BC
:101990004141B648C9B2FEF711FD6268209B0021A3
:1019A0001343E268134303D1A1684B425941C9B2C2
:1019B000AF48FEF703FD20000DF0D8F90522002105
:1019C00020000DF081FA013041424141A948C9B2DD
:1019D000FEF7F4FC6268209B00211343E268134386
:1019E00003D1A1684B425941C9B2A348FEF7E6FCB6
:1019F00020000DF0BBF902210322494220000DF026
:101A000063FA0130414241419C48C9B2FEF7D6FC1D
:101A10006268209B00211343E268134303D1A1684D
:101A20004B425941C9B29648FEF7C8FC20000DF060
:101A30009DF9052201215242494220000DF044FA4D
:101A40000130414241418F48C9B2FEF7B7FC62689C
:101A5000209B00211343E268134303D1A1684B424A
:101A60005941C9B28848FEF7A9FC20000DF07EF963
:101A7000C82006F071FE85480AF04AFBFEF790FC8C
:101A800083480AF045FB14A80DF068F9230014AA56
:101A900023CA23C31268C8201A6006F05DFE012223
:101AA000012120000DF010FA41424141794FC9B2A5
:101AB0003800FEF783FC209B0021012B01D105F0AB
:101AC00045FF754D2800FEF779FC20000DF04EF91A
:101AD0000122012120000DF0F7F941424141380077
:101AE000C9B2FEF76BFC209B0021012B01D105F050
:101AF0001DFF2800FEF762FC20000DF037F90522DB
:101B0000052120000DF0E0F9414241416348C9B28E
:101B1000FEF754FC209B0021052B01D105F0F6FEB9
:101B20005F48FEF74BFC20000DF020F901220A214E
:101B300020000DF0C9F9414241415A48C9B2FEF7AF
:101B40003DFC209B00210A2B01D105F08EFE56485A
:101B5000FEF734FC20000DF009F90F2202212000CD
:101B60000DF0B2F9414241415048C9B2FEF726FC9E
:101B7000209B0021022B01D105F067FE4C48FEF7A7
:101B80001DFC20000DF0F2F8C82006F0E5FD3F48EE
:101B90000AF0BEFAFEF704FC46480AF0B9FA14A8A7
:101BA0000DF0DCF8230014AA23CA23C3FA25126817
:101BB000C8201A60AD0006F0CFFD012229002000E8
:101BC0000DF082F9414241413B48C9B2FEF7F6FBB4
:101BD000209B0021AB4201D105F027FE3748384D4C
:101BE000FEF7ECFB20000DF0C1F82A0005212000D3
:101BF0000DF06AF9414241413248C9B2FEF7DEFBBD
:101C0000209B0021052B01D105F0FFFD2E48FEF79A
:101C1000D5FB20000DF0AAF87F227F2120000DF0D7
:101C200053F9414241412948C9B2FEF7C7FB209B05
:101C300000217F2B01D105F0D8FD49E0846501101A
:101C4000CC650110D8650110E8650110FC65011034
:101C50000C66011058660110A0660110CC660110D8
:101C6000E066011000670110206701103C67011059
:101C70005C6701107867011098670110B467011064
:101C8000D4670110F0670110106801102C68011072
:101C90007C680110AC680110C8680110E46801108C
:101CA000006901101C6901103C690110586901109C
:101CB0007869011094690110C4690110E469011088
:101CC0001A040000046A0110246A0110446A011019
:101CD000FC48FEF773FB20000DF048F8C82006F022
:101CE0003BFDF9480AF014FAC82006F035FDF74824
:101CF0000AF00EFAFEF754FBF5480AF009FA14A8A8
:101D00000DF02CF8230014AA23CA23C31268C8209C
:101D10001A6006F021FD0122012320922193002365
:101D20002000A3600DF022F8013041424141E94812
:101D3000C9B2FEF743FB20000DF018F80422012180
:101D400020000DF0C1F820000DF010F84142414193
:101D5000E148C9B2FEF732FB6268209B00211343C1
:101D6000E268134303D1A1684B425941C9B227002D
:101D7000DA48FEF723FB20000CF0F8FFC82006F03D
:101D8000EBFCD2480AF0C4F9FEF70AFBD4480AF08B
:101D9000BFF9D4480AF0BCF914A80CF0DFFF14AB6B
:101DA00007CB07C799461B68C8200A973B600125E7
:101DB00006F0D2FC0023012201212000209521956C
:101DC0001E00A3600DF002F8013041424141C148BC
:101DD000C9B2FEF7F3FA20000CF0C8FF012201217E
:101DE00020000DF071F80322002120000CF0EEFF1E
:101DF000013041424141BC48C9B2FEF7DFFA200040
:101E00000CF0B4FF0122012120000DF05DF801214A
:101E10000122200049420CF0D9FF013041424141EA
:101E2000B248C9B2FEF7CAFA20000CF09FFF0122A7
:101E3000012120000DF048F8042201215242200027
:101E400049420CF0C3FF013041424141A848C9B2A8
:101E5000FEF7B4FA20000CF089FFC82006F07CFCE5
:101E600099480AF055F9FEF79BFAA2480AF050F992
:101E700014A80CF073FF220014A92F0029C929C24D
:101E80004A460A9B1268C8201A6006F065FC0122C7
:101E9000012120000DF018F80122012120000CF092
:101EA00095FF414241419448C9B2FEF787FA2000AC
:101EB0000CF05CFF0222012120000DF005F8012248
:101EC000012120000CF082FF414241418B48C9B200
:101ED000FEF774FA20000CF049FF012204212000D3
:101EE0000CF0F2FF0122012120000CF06FFF4142B3
:101EF00041418348C9B2FEF761FA20000CF036FF79
:101F00000222022120000CF0DFFF0122012120002B
:101F10000CF05CFF414241417A48C9B2FEF74EFAEB
:101F200020000CF023FF0122012120000CF0CCFF47
:101F30000122032120000CF049FF41424141724837
:101F4000C9B2FEF73BFA20000CF010FF0222032179
:101F500020000CF0B9FF0522032120000CF036FF11
:101F6000414241416948C9B2FEF728FA20000CF00D
:101F7000FDFE0622032120000CF0A6FF072205210A
:101F800020000CF023FF414241416148C9B2FEF7F5
:101F900015FA20000CF0EAFE0622012120000CF0C8
:101FA00093FF0222072120000CF010FF4142414123
:101FB0005848C9B2FEF702FA20000CF0D7FE012201
:101FC000082120000CF080FF0C22032120000CF0DF
:101FD000FDFE414241415048C9B2FEF7EFF92000F1
:101FE0000CF0C4FE0122012120000CF06DFF7F22C5
:101FF0007F2120000CF0EAFE414241414748C9B22E
:10200000FEF7DCF920000CF0B1FEC82006F0A4FBBE
:102010002D480AF07DF8C82006F09EFB2B480AF0F8
:1020200077F8FEF7BDF93E480AF072F82D480AF03D
:102030006FF814A80CF092FE220014A929C929C235
:102040004A460A9B1268C8201A6006F085FB0121E7
:10205000200020972197A6600CF0A0FF013041429C
:1020600041411C48C9B2FEF7A9F920000CF07EFEE0
:10207000002120000CF092FF0130414241412948EB
:10208000C9B2FEF79BF920000CF070FE032120007E
:1020900049420CF083FF0130414241412248C9B21C
:1020A000FEF78CF920000CF061FE07480AF030F8CA
:1020B000FEF776F90F480AF02BF814A80CF04EFE44
:1020C00014AA33E0646A01102C6801100C66011038
:1020D000846A0110CC660110C06A0110D86A011030
:1020E000FC6A0110A0660110486B0110706B0110B2
:1020F000986B0110C06B0110E86B0110106C01109F
:10210000386C0110606C0110886C0110B06C01100B
:10211000D86C0110006D0110286D0110546D011074
:10212000806D0110D06D0110EC6D011010002100C8
:102130002CC82CC149460A9B0968C820196006F0C2
:102140000BFB012120000CF029FFE168FD48009104
:102150006268A3682099FEF749F920000CF006FE9A
:10216000032120000CF01AFFE168F7480091626833
:10217000A3682099FEF73AF920000CF0F7FD08213A
:1021800020000CF00BFFE168F04800916268A36842
:102190002099FEF72BF920000CF0E8FD1521200016
:1021A0000CF0FCFEE168EA480091A368209962689F
:1021B000FEF71CF920000CF0D9FDC82006F0CCFA7F
:1021C000E44809F0A5FFC82006F0C6FAE24809F085
:1021D0009FFFFEF7E5F8E14809F09AFFE04809F0B3
:1021E00097FFC82006F0B8FA320001210132200022
:1021F00020972197A6600CF0FBFE0130414241413F
:10220000D848C9B2FEF7DAF820000CF0AFFD022181
:102210000122494220008A460CF0EAFE0130414288
:102220004141D148C9B2FEF7C9F820000CF09EFD2B
:102230000022042120000CF0DBFE0130414241412C
:10224000CA48C9B2FEF7BAF820000CF08FFD04218D
:102250005246200049420CF0CBFE01304142414140
:10226000C348C9B2FEF7AAF820000CF07FFDB948B8
:1022700009F04EFFFEF794F8BE4809F049FF14A894
:102280000CF06CFD14AA100021002CC82CC149468A
:102290000A9E0968C820316006F05EFA0122012119
:1022A00020000CF0A5FEE168B3480091A3682099D6
:1022B0006268FEF76FF920000CF058FD052202213C
:1022C00020000CF095FEE168AC480091A3682099CD
:1022D0006268FEF75FF920000CF048FD0322102130
:1022E00020000CF085FEE168A5480091A3682099C4
:1022F0006268FEF74FF920000CF038FD71220221D0
:1023000020000CF075FEE1689E48009162682099FB
:10231000A368FEF73FF920000CF028FDC82006F066
:102320001BFA8C4809F0F4FEC82006F015FA8A481A
:1023300009F0EEFEFEF734F8934809F0E9FE88480C
:1023400009F0E6FE14A80CF009FD14AB18002100FA
:102350002CC82CC1494609680A96316010A98846E4
:102360001CAD08000DF0AEFD290040464CC84CC124
:10237000C8208B4606F0F0F9002201212800160043
:1023800020972197A2600DF0A3FDAB686A681C99A5
:1023900020000CF059FE0130414241417B48C9B256
:1023A000FEF70CF820000CF0E1FC28000DF06AFDAF
:1023B0000122012120000CF087FD3200AB680121D1
:1023C00020001C976E600CF03FFE013041424141FD
:1023D0006F48C9B2FDF7F2FF20000CF0C7FC2800DF
:1023E0000DF050FD3200AB680121200020972197AD
:1023F0001C97A6606E600CF027FE013041424141FF
:102400006448C9B2FDF7DAFF20000CF0AFFC2800E9
:102410000DF038FDAB683200012120002097219794
:102420001C97E6606E600CF00FFE013041424141A6
:102430005948C9B2FDF7C2FF20000CF097FC2800F4
:102440000DF020FD0222022120000CF03DFD51463E
:10245000AB68320020001C916E600CF0F5FD01307D
:10246000414241414D48C9B2FDF7A8FF20000CF0A0
:102470007DFC28000DF006FD0522052120000CF052
:1024800023FD3200AB68002120001C966E600CF02A
:10249000DBFD0130414241414148C9B2FDF78EFFA9
:1024A00020000CF063FC28000DF0ECFCAB6832005F
:1024B00000212000209621961C96A6606E600CF0EC
:1024C000C3FD0130414241413648C9B2FDF776FFB4
:1024D00020000CF04BFC28000DF0D4FCC82006F0C6
:1024E0003BF91C4809F014FEFDF75AFF214809F09A
:1024F0000FFE14A80CF032FC2100370014AE0DCEF4
:102500000DC149460A9E0968404631600DF0DAFC6B
:10251000290040464CC84CC1C82006F01DF90222D3
:10252000022120000CF0D0FC022128000DF016FD45
:102530006A68AB681C9920000CF086FD414241415D
:1025400032E0C046086E01100C6E0110106E0110D2
:10255000146E01102C6801100C6601101C6E011025
:10256000A0660110CC660110686E0110886E011023
:10257000A86E0110C06B0110DC680110C86E01105C
:10258000D06E0110D86E0110E06E0110406F011086
:102590005C6F0110786F0110946F0110B06F011023
:1025A000D46F0110F86F0110FD48C9B2FDF706FFA6
:1025B000E168FC480091A36820996268FEF700F981
:1025C00020000CF0D3FB28000DF05CFC0422042159
:1025D00020000CF079FC042128000DF0BFFC6A6893
:1025E000AB681C9920000CF02FFD41424141EE48A0
:1025F000C9B2FDF7E3FEE168EC480091A3682099B9
:102600006268FEF7DDF820000CF0B0FB28000DF04A
:1026100039FC0322022120000CF056FC0121280085
:102620000DF09CFC6A68AB681C9920000CF00CFD56
:1026300041424141DE48C9B2FDF7C0FEE168DD48D4
:102640000091A36820996268FEF7BAF820000CF0A8
:102650008DFB28000DF016FC0922052120000CF04E
:1026600033FC0C2128000DF079FC6A68AB681C99DA
:1026700020000CF0E9FC41424141CF48C9B2FDF7CE
:102680009DFEE168CD48009162682099A368FEF73D
:1026900097F820000CF06AFB28000DF0F3FB0822ED
:1026A0000223524203212800209221930DF056FC70
:1026B0006A68AB681C9920000CF0C6FC414241419D
:1026C000BF48C9B2FDF77AFEE168BE480091626872
:1026D000A3682099FEF774F820000CF047FB28004F
:1026E0000DF0D0FBC82006F037F8B74809F010FD10
:1026F000C82006F031F8B54809F00AFDFDF750FE94
:10270000B34809F005FDB34809F002FD14A9884655
:1027100008000CF023FB280041464CC94CC08946F8
:10272000484659460068086040460CF017FB2100F7
:1027300040464CC84CC149460A9E0968C8203160D1
:1027400006F00AF801231C931D93AF6000943A0031
:10275000EB68696801200CF0B5FC01304142414151
:102760003E00C9B29C48FDF729FE28000CF0FEFA95
:10277000013F20000CF0FAFA1D9600941C97EB68BC
:10278000AA68696838000CF09DFC01304142414163
:102790009248C9B28246FDF711FE28000CF0E6FA15
:1027A00020000CF0E3FAC82005F0D6FF864809F0B7
:1027B000AFFCFDF7F5FD8A4809F0AAFC40460CF095
:1027C000CDFA290040464CC84CC10068086040461C
:1027D0000CF0C4FA210040464CC84CC149460A9E40
:1027E0000968C820316005F0B7FF012201212800E7
:1027F0000CF0FEFB0095EB68AA6869681C980CF069
:1028000061FC414241417748C9B2FDF7D7FD28003C
:102810000CF0ACFA20000CF0A9FA022202212800E8
:102820000CF0E6FB0094AA68EB6869681C980CF051
:1028300049FC414241416C48C9B2FDF7BFFD01A9C5
:102840000C91080021004CC94CC001000A9E0D905B
:1028500030680860E8681C990090AB686A68634853
:10286000FEF780F828000CF081FA20000CF07EFAC8
:102870000622042128000CF0BBFB0094EB68AA6838
:1028800069681C980CF01EFC414241415848C9B28D
:10289000FDF794FD22000C984ACA4AC00A9B0D9984
:1028A0001A6854480A60EA681C990092AB686A6822
:1028B000FEF758F828000CF059FA20000CF056FAF0
:1028C0000722012128000CF093FB0094AA68EB6812
:1028D00069681C980CF0F6FB414241414648C9B278
:1028E000FDF76CFD23000C9846CB46C00A9B0D9962
:1028F00018680860E8681C9900906A68AB683F48EF
:10290000FEF730F828000CF031FA20000CF02EFA17
:10291000C82005F021FF2C4809F0FAFBC82005F07B
:102920001BFF2A4809F0F4FBFDF73AFD344809F093
:10293000EFFB284809F0ECFB40460CF00FFA2000B2
:10294000434646CB46C048460A9B00681860C820EC
:1029500005F002FF0022012320001600209321939E
:10296000A2600CF0E9FB0130414241411A48C9B272
:10297000FDF724FD20000CF0F9F9200021962097A6
:102980000CF0DAFB0130414241415046C9B2FDF73B
:1029900015FD20000CF0EAF9C82005F0DDFE31E05D
:1029A0001C7001103870011044700110607001102B
:1029B0006C7001108870011094700110B4700110D7
:1029C000C0700110E07001102C6801100C6601103D
:1029D000EC700110A0660110CC6601103871011076
:1029E000C06B0110587101107471011090710110C9
:1029F00098710110B4710110BC710110D8710110EF
:102A0000E0710110FE4809F083FBFDF7C9FCFD48A9
:102A100009F07EFB40460CF0A1F92000434646CB6E
:102A200046C048460A9B00681860C82005F094FE1E
:102A30000222022120000CF0DBFA20000CF07CFBCB
:102A400041424141F048C9B2FDF7B8FCE068209925
:102A50000090A3686268ED48FEF71EF820000CF0B5
:102A600085F90622062120000CF0C2FA20000CF0A5
:102A700063FB41424141E648C9B2FDF79FFCE06873
:102A800020990090A3686268E248FEF705F82000EC
:102A90000CF06CF90322022120000CF0A9FA2000AE
:102AA0000CF04AFB41424141DB48C9B2FDF786FCCC
:102AB000E068209900906268A368D848FDF7ECFFB1
:102AC00020000CF053F9C82005F046FECC4809F070
:102AD0001FFBC82005F040FED14809F019FBFDF7A7
:102AE0005FFCD04809F014FBCF4809F011FB4046C9
:102AF0000CF034F92000434646CB46C048460A9BBA
:102B000000681860C82005F027FE012300222093EA
:102B1000219380231600DB05A260200000220CF028
:102B200033FB013041424141C048C9B2FDF746FC88
:102B300020000CF01BF980230022DB0520002196E9
:102B400020970CF021FB0130414241415046C9B26F
:102B5000FDF734FC20000CF009F9C82005F0FCFD5D
:102B6000A74809F0D5FAFDF71BFCA64809F0D0FAF2
:102B700040460CF0F3F82A0040464AC84AC20068B2
:102B8000106040460CF0EAF8220040464AC84AC2AB
:102B90004A460A9B1268C8201A6005F0DDFD022231
:102BA000022128000CF024FA00946968AA68EB68F6
:102BB0001C980CF087FA00229D4B28000CF0E4FAD8
:102BC000414241419B48C9B2FDF7F8FB0723200071
:102BD0000C9A05934AC84AC20A9B0D9F1868386030
:102BE000E8681C990090AB686A689348FDF7E6FFB7
:102BF00028000CF0BBF820000CF0B8F803220521E7
:102C000028000CF0F5F900946968AA68EB681C9834
:102C10000CF058FA0022894B28000CF0B5FA41421A
:102C200041418748C9B2FDF7C9FB032320000C9A34
:102C300005934AC84AC20A9A10683860E8681C9925
:102C40000090AB686A687F48FDF7B8FF28000CF079
:102C50008DF820000CF08AF806220A2128000CF0DA
:102C6000C7F900946968AA68EB681C980CF02AFA06
:102C70000022754B28000CF087FA4142414173480D
:102C8000C9B2FDF79BFB092322000C985B42059318
:102C90004ACA4AC00A9A6E48126800263A60EA6830
:102CA0001C990092AB686A68FDF788FF28000CF059
:102CB0005DF820000CF05AF80822022128000CF0E0
:102CC00097F900946968AA68EB681C980CF0FAF907
:102CD0000023002228000CF057FA414241415D4890
:102CE000C9B2FDF76BFB22000C9805964ACA4AC090
:102CF0000A9A0D97126858483A60EA681C9900923F
:102D00006A68AB68FDF75AFF28000CF02FF8200026
:102D10000CF02CF8C82005F01FFD394809F0F8F92F
:102D2000C82005F019FD3E4809F0F2F9FDF738FB1F
:102D30004A4809F0EDF93C4818AE09F0E9F9404677
:102D40000CF00CF83200434683CB83C20E921B6812
:102D5000404613600CF002F8434683CB83C51B68E2
:102D60002B6014AD28000BF0F9FF2300A94683CD9A
:102D700083C3AB460A9A2D68C820156005F0ECFCA9
:102D8000012300221CAD189319930121B260280081
:102D90000132F3600CF098F86B462800049486C862
:102DA00086C3804600689A461860F368B268716806
:102DB00018980CF013FA0130414241412848C9B239
:102DC000FDF7FCFA30000BF0D1FF28000BF0CEFF2E
:102DD00020000BF0CBFF3000012101220CF074F831
:102DE00001230022F3601C931D9328006B46AA6008
:102DF000049486C886C353460068186032E0C04613
:102E00002C680110C06B01107471011090710110D9
:102E100028720110447201104C7201106872011086
:102E20000C66011070720110A0660110CC660110D2
:102E300000001C40C8720110E4720110000008403C
:102E4000EC72011008730110000022C01073011011
:102E5000307301103C73011058730110607301103E
:102E6000B4730110B2687168012318980CF0B6F9B8
:102E7000013041424141FE48C9B2FDF79FFA30009E
:102E80000BF074FF28000BF071FF20000BF06EFFB9
:102E900001230022189319931C93F3601D932800BB
:102EA0006B46B260AA60049486C886C35346006825
:102EB000002218607168012318980CF08FF9013016
:102EC00041424141EB48C9B2FDF778FA30000BF0BE
:102ED0004DFF28000BF04AFF20000BF047FF3000A9
:102EE000012201210BF0F0FF012300221893199316
:102EF0000121F260280001320BF0E6FF6B4628004A
:102F0000049486C886C3534600681860F368B268A4
:102F1000716818980CF062F9013041424141D6487D
:102F2000C9B2FDF74BFA30000BF020FF28000BF080
:102F30001DFF20000BF01AFF3000012201210BF0D1
:102F4000C3FF0121012228000BF0BEFF0123002254
:102F50001C931D9328006B46EA60049486C886C3C0
:102F6000504600230360F368B268716818980CF04B
:102F700035F9013041424141C048C9B2FDF71EFA5E
:102F800030000BF0F3FE28000BF0F0FE20000BF0F9
:102F9000EDFE3000012201210BF096FF01210122FC
:102FA00028000BF091FF01230022189319931C9322
:102FB0001D9328006B46F260EA60049486C886C3BD
:102FC000002350460360B268716818980CF006F947
:102FD000013041424141AA48C9B2FDF7EFF9300042
:102FE0000BF0C4FE28000BF0C1FE20000BF0BEFE6B
:102FF0000520012301225B42199005212800189326
:103000000BF062FF6B462900049485C985C35346C3
:1030100009681960F368B268716818980CF0DEF8F6
:103020000130414241419748C9B2FDF7C7F930002C
:103030000BF09CFE28000BF099FE20000BF096FE92
:103040003000042202210BF03FFF052304226946D1
:1030500028005B4204941C921D938CC88CC151467D
:1030600000680860B268F368716818980CF0B6F8E8
:103070000130414241418448C9B2FDF79FF9300017
:103080000BF074FE28000BF071FE20000BF06EFEBA
:10309000052304225B4218931D9329006B46049478
:1030A00019921C9285C985C3534609681960B26894
:1030B000F368716818980CF091F801304142414171
:1030C0007248C9B2FDF77AF930000BF04FFE2800C4
:1030D0000BF04CFE20000BF049FE0520002218905A
:1030E0001D906B462800049419921C9286C886C3D2
:1030F000534600681860F368B268716818980CF05D
:103100006DF80130414241416148C9B2FDF756F9BD
:1031100030000BF02BFE28000BF028FE20000BF0F7
:1031200025FE3000062201210BF062FF0922052155
:1031300028000BF05DFF6B462800049486C886C308
:10314000534600681860F368B268716818980CF00C
:1031500045F80130414241414E48C9B2FDF72EF9D0
:1031600030000BF003FE28000BF000FE20000BF0F7
:10317000FDFD3000012205210BF03AFF012205215F
:1031800028000BF035FF6B462800049486C886C3E0
:10319000534600681860F368B268716818980CF0BC
:1031A0001DF80130414241413B48C9B2FDF706F9E3
:1031B00030000BF0DBFD28000BF0D8FD20000BF0F9
:1031C000D5FD3000072205210BF012FF0522092151
:1031D00028000BF00DFF6B462800049486C886C3B8
:1031E000534600681860B268F368716818980BF06D
:1031F000F5FF0130414241412848C9B2FDF7DEF8F0
:1032000030000BF0B3FD28000BF0B0FD20000BF0F8
:10321000ADFDC82005F0A0FA214808F079FFFDF7C0
:10322000BFF8204808F074FF48460BF097FD3300C4
:10323000484686C886C35B460E9A1B68484613609C
:103240000BF08CFD2B004A4683CA83C312684846A4
:103250001A600BF083FD23004A4683CA83C35B4692
:103260000A9A1B68C820136005F076FA30001BE04C
:10327000D4730110F87301101C7401104074011014
:10328000647401108C740110B4740110DC740110AA
:103290000875011030750110647501109C750110DE
:1032A0002C680110C06B0110012201210BF0A0FE5F
:1032B0000121012228000BF09BFE6B462A0004949A
:1032C00083CA83C3534612681A60B268F368716890
:1032D00018980BF083FF41424141FE48C9B2FDF707
:1032E0006DF8220005AB994683CA83C30A9A126817
:1032F0001A602A000C988ACA8AC00D991268F6488A
:103300000A60F26818990092B3687268FDF712FDBE
:1033100030000BF02BFD28000BF028FD20000BF0F7
:1033200025FD3000032203210BF062FE032103225E
:1033300028000BF05DFE6A462B00049483CB83C209
:1033400052461B681360B268F368716818980BF0F6
:1033500045FF41424141E148C9B2FDF72FF84A46D5
:10336000230083CB83C20A9B1B6813602A000C983E
:103370008ACA8AC00D991268D9480A60F2681899F9
:103380000092B3687268FDF7D5FC30000BF0EEFCDC
:1033900028000BF0EBFC20000BF0E8FC30000722CB
:1033A00003210BF025FE0721032228000BF020FE4D
:1033B0006A462B00049483CB83C252461B68136079
:1033C000B268F368716818980BF008FF41424141F8
:1033D000C448C9B2FCF7F2FF4A46230083CB83C23C
:1033E0000A9B1B6813602A000C988ACA8AC00D9930
:1033F0001268BD480A60F26818990092B368726852
:10340000FDF798FC30000BF0B1FC28000BF0AEFC8F
:1034100020000BF0ABFC3000022209210BF054FD20
:103420000221092228000BF04FFD6A462B0004946C
:1034300083CB83C252461B681360B268F36871681D
:1034400018980BF0CBFE41424141A848C9B2FCF7A5
:10345000B5FF4A46230083CB83C20A9B1B681360D7
:103460002A000C988ACA8AC00D991268A0480A607E
:10347000F26818990092B3687268FDF75BFC30003F
:103480000BF074FC28000BF071FC20000BF06EFCBC
:1034900030000B2206210BF0ABFD0B210622280089
:1034A0000BF0A6FD6A462B00049483CB83C25246E0
:1034B0001B681360B268F368716818980BF08EFE91
:1034C000414241418B48C9B2FCF778FF4A4623008C
:1034D00083CB83C20A9B1B6813602A000C988ACA9C
:1034E0008AC040460D9900680860F16882480091E2
:1034F000B36872681899FDF71DFC30000BF036FCBC
:1035000028000BF033FC20000BF030FC30000322CD
:1035100004210BF06DFD0622032128000BF068FD4D
:103520006946049485CD85C14146554609682960A0
:10353000B268F368716818980BF050FE414241413F
:1035400005AD6E48C9B2FCF739FF0C9583CC83C535
:103550000A9B1CAC1F68AA462F60270001AD0A9584
:1035600007CF07C50D953968B8462960F7681899DF
:1035700000977268B368624818AEFDF7DBFB300055
:1035800020AD0BF0F3FB20000BF0F0FB28000BF05C
:10359000EDFBC82005F0E0F85A4808F0B9FDC82056
:1035A00005F0DAF8584808F0B3FDFCF7F9FE574883
:1035B00008F0AEFD564808F0ABFD14A80BF0CEFBAA
:1035C00014AB190020008CC98CC08B46584641466C
:1035D0000068086014A80BF0C1FB14AB29001800A8
:1035E0008CC88CC15846006889460860C82005F020
:1035F000B3F801230022280017001C931D9301211A
:10360000A26001320BF060FC0095E368A26861687B
:103610001C980BF07BFE0130414241413D48C9B24C
:10362000FCF7CCFE20000BF0A1FB28000BF09EFB6A
:103630000122012120000BF047FC0123209321935C
:10364000AF600095A268E36861681C980BF05EFEAD
:103650000130414241413048C9B2FCF7AFFE200081
:103660000BF084FB28000BF081FB01231C931D93BE
:103670002093A7602193AF600095E3683A006168EA
:1036800001200BF043FE0130414241412348C9B2C1
:10369000FCF794FE20000BF069FB28000BF066FBA2
:1036A0000122012120000BF00FFC3A000123280029
:1036B000012101321C931D93E7600BF005FC00957E
:1036C000E368A26861681C980BF020FE013041425B
:1036D000414125E0D4750110F47501100076011008
:1036E000207601102C7601104C76011058760110CE
:1036F0007876011084760110A4760110B07601105E
:10370000D07601102C6801100C660110DC760110D7
:10371000A0660110B4730110D4730110F873011086
:10372000FE48C9B2FCF74AFE20000BF01FFB280040
:103730000BF01CFB0122012120000BF0C5FB28002F
:10374000012201210BF0C0FB012320932193EF60A4
:103750000095E368A26861681C980BF0D7FD013002
:1037600041424141EE48C9B2FCF728FE20000BF06F
:10377000FDFA28000BF0FAFA0122012120000BF0DB
:10378000A3FB2800012201210BF09EFB01231D93C6
:103790001C932093E7602193EF6000950023A268BB
:1037A000616801200BF0B2FD013041424141DD482A
:1037B000C9B2FCF703FE20000BF0D8FA28000BF08A
:1037C000D5FA0121052049421C911D9001222800B3
:1037D00006310BF079FB0095E368A26861681C98DC
:1037E0000BF094FD013041424141CF48C9B2FCF792
:1037F000E5FD20000BF0BAFA28000BF0B7FA04221E
:10380000022120000BF060FB0521042200954942B3
:103810000F00E36820922191A26861681C980BF068
:1038200075FD013041424141C048C9B2FCF7C6FDB7
:1038300020000BF09BFA28000BF098FA04221C974A
:1038400000951D923800E36861682092A268219774
:103850000BF05CFD013041424141B548C9B2FCF773
:10386000ADFD20000BF082FA28000BF07FFA052155
:10387000002200951D921C91E36820922191A2687C
:10388000616805200BF042FD013041424141A948E9
:10389000C9B2FCF793FD20000BF068FA28000BF08A
:1038A00065FA0622012120000BF0A2FB2800092264
:1038B00005210BF09DFB0095E368A26861681C98E8
:1038C0000BF024FD0130414241419B48C9B2FCF755
:1038D00075FD20000BF04AFA28000BF047FA012290
:1038E000052120000BF084FB2800012205210BF0AC
:1038F0007FFB0095E368A26861681C980BF006FDE9
:103900000130414241418D48C9B2FCF757FD2000CA
:103910000BF02CFA28000BF029FA072205212000D1
:103920000BF066FB2800052209210BF061FB0095D6
:10393000A268E36861681C980BF0E8FC0130414222
:1039400041417F48C9B2FCF739FD20000BF00EFA67
:1039500028000BF00BFAC82004F0FEFE794808F0AE
:10396000D7FBFCF71DFD784808F0D2FB14A80BF03C
:10397000F5F9300014AB86CB86C0030058460068CA
:10398000186014A80BF0EAF9200014AB86CB86C0AF
:103990005B461B68036014A80BF0E0F9280014AB29
:1039A00086CB86C05B461B680360C82004F0D4FE4B
:1039B0000122012130000BF01BFB0122012120001C
:1039C0000BF016FB00956168A268E3681C980BF089
:1039D00079FB0095B268F368716818980BF096FC53
:1039E000414241415948C9B2FCF7E8FC2B000C9810
:1039F00086CB86C050461B68036023000A9886CB9E
:103A000086C00D981B680360F36818990093B3682B
:103A100072684F48FDF78EF930000BF0A7F92000CF
:103A20000BF0A4F928000BF0A1F9032203213000C8
:103A30000BF0DEFA0322032120000BF0D9FA0095E7
:103A40006168A268E3681C980BF03CFB0095B268C3
:103A5000F368716818980BF059FC414241413D48A8
:103A6000C9B2FCF7ABFC29000C9B85C985C348464D
:103A700051460068086020000A9A8AC88AC24146F6
:103A80000D9809680160F16833480091B36818998E
:103A90007268FDF74FF930000BF068F920000BF069
:103AA00065F928000BF062F90722032130000BF0C2
:103AB0009FFA0322072120000BF09AFA0095616813
:103AC000A268E3681C980BF0FDFA0095B268F368F1
:103AD000716818980BF01AFC414241411F48C9B265
:103AE000FCF76CFC29000C9B85C985C348465146F0
:103AF0000068086021000A9A89C989C20D9809687E
:103B00000160F16816480091B36818997268FDF772
:103B100011F930000BF02AF924E0C0461C740110A2
:103B200040740110647401108C740110B47401109D
:103B3000DC740110087501103075011064750110F6
:103B40009C7501102C680110C06B0110D475011018
:103B5000F475011000760110207601102C7601100A
:103B60004C76011020000BF001F928000BF0FEF854
:103B70000222092130000BF0A7F9092202212000BE
:103B80000BF0A2F900956168A268E3681C980BF03D
:103B900099FA0095B268F368716818980BF0B6FB53
:103BA00041424141FD48C9B2FCF708FC28000C9B8A
:103BB00086C886C3494650460968016020000A9AB3
:103BC0008AC88AC241460D9809680160F068189950
:103BD0000090B3687268F248FDF7ACF830000BF063
:103BE000C5F820000BF0C2F828000BF0BFF80B223C
:103BF000062130000BF0FCF906220B2120000BF00F
:103C0000F7F900956168A268E3681C980BF05AFA0E
:103C10000095F368B268716818980BF077FB414221
:103C20004141E048C9B2FCF7C9FB28000C998CC897
:103C30008CC1494650460968016020000A9A8AC82A
:103C40008AC241460D9809680160F0681899009091
:103C5000B3687268D448FDF76DF830000BF086F851
:103C600020000BF083F828000BF080F803220421D9
:103C700030000BF0BDF90622032120000BF0B8F94B
:103C800000956168A268E3681C980BF01BFA009528
:103C9000B268F368716818980BF038FB41424141F3
:103CA000C248C9B2FCF78AFB28000C9B86C886C3B1
:103CB00053460068186023000A9A83CB83C20D988C
:103CC0001B680360F068189900907268B368B84880
:103CD000FDF730F830000BF049F820000BF046F803
:103CE00028000BF043F8C82004F036FDB14808F076
:103CF0000FFAC82004F030FDAF4808F009FAFCF7CD
:103D00004FFBAE4808F004FAAD4808F001FA14A8D9
:103D10000BF024F814AB180026008AC88AC658464F
:103D20000068002730602E0014A80BF017F814AAC2
:103D30000BCA0BC6584600683060C82004F00CFD62
:103D400001232800012201211E001C931D93A7605E
:103D50000BF0BAF8E86820990090AB686A68200018
:103D60000BF03AFB0130414241419648C9B2FCF7A1
:103D700025FB20000AF0FAFF28000AF0F7FF0122D5
:103D8000012120000BF0A0F8E86820962196AF6092
:103D900000906A680023012120000BF01DFB013018
:103DA000414241418848C9B2FCF708FB20000AF0B3
:103DB000DDFF28000AF0DAFFE868209621961C96BD
:103DC000AF601D96A76000906A6800230121200063
:103DD0000BF002FB0130414241417C48C9B2FCF783
:103DE000EDFA20000AF0C2FF28000AF0BFFF01220E
:103DF000012120000BF068F82800012201211C9607
:103E00001D96E7600BF060F8E86820990090AB68B9
:103E10006A6820000BF0E0FA0130414241416C48F1
:103E2000C9B2FCF7CBFA20000AF0A0FF28000AF084
:103E30009DFF0122012120000BF046F821962096DB
:103E4000EF600097AB686A68012120000BF0C4FAAC
:103E50000130414241415F48C9B2FCF7AFFA20004E
:103E60000AF084FF28000AF081FF012201212000CE
:103E70000BF02AF82800012201210BF025F82196E9
:103E800020961C96EF601D96E76000976A68AB6805
:103E9000012120000BF0A0FA0130414241414E487F
:103EA000C9B2FCF78BFA20000AF060FF28000AF084
:103EB0005DFF052001231D905B42280001220521A2
:103EC0001C930BF001F8E96820000091AB686A6868
:103ED00020990BF081FA0130414241413F48C9B27B
:103EE000FCF76CFA20000AF041FF28000AF03EFFC0
:103EF0000422022120000AF0E7FF04222092093A5E
:103F000021921600EA68042100926A68AB682000DA
:103F10000BF062FA0130414241413148C9B2FCF72D
:103F20004DFA20000AF022FF28000AF01FFF0421AA
:103F300021961C96EE68209100966A68AB68200076
:103F40001D910BF049FA0130414241412548C9B267
:103F5000FCF734FA20000AF009FF28000AF006FFF7
:103F60000523EE682097009621936A681C93002130
:103F7000AB6820001D970BF02FFA01304142414100
:103F80001948C9B2FCF71AFA20000AF0EFFE28001F
:103F90000AF0ECFE06220121200027E058760110ED
:103FA0007876011084760110A4760110B0760110A5
:103FB000D07601102C6801100C66011054770110A6
:103FC000A0660110B4730110D4730110F8730110CE
:103FD0001C74011040740110647401108C74011081
:103FE000B4740110DC740110087501100BF000F8B6
:103FF0002800092205210AF0FBFFE9682000009152
:10400000AB686A6820990BF0E7F901304142414101
:10401000FE48C9B2FCF7D2F920000AF0A7FE28003A
:104020000AF0A4FE0122052120000AF0E1FF280089
:10403000012205210AF0DCFFE96820000091AB684D
:104040006A6820990BF0C8F9013041424141F048BB
:10405000C9B2FCF7B3F920000AF088FE28000AF084
:1040600085FE0722052120000AF0C2FF2800052254
:1040700009210AF0BDFFE968200000916A68AB6879
:1040800020990BF0A9F9013041424141E148C9B200
:10409000FCF794F920000AF069FE28000AF066FE99
:1040A000C82004F059FBDC4808F032F8FCF778F936
:1040B000DA4808F02DF814A818AE0AF04FFE14AB39
:1040C000180031008CC88CC10F91026883460A60C9
:1040D00014A80AF043FE14AB1900220089C989C252
:1040E0005946096814A811600AF038FE14AB2A007A
:1040F000190089C989C259460968C820116004F0AD
:104100002BFB0122012130000AF072FF0122012164
:1041100020000AF06DFF00957168B268F368189886
:104120000AF0D0FFE26828000092A36862681C9938
:104130000BF052F941424141B948C9B2FCF73EF98E
:104140002A0005A90A9189CA89C10C91126801A89F
:104150000A60030022000D9083CA83C30E93126885
:10416000B0481A60F26818990092B3687268FCF758
:10417000E1FD30000AF0FAFD20000AF0F7FD28000A
:104180000AF0F4FD0322032130000AF031FF03227C
:10419000032120000AF02CFF00957168B268F368D3
:1041A00018980AF08FFFE26828000092A3686268FE
:1041B0001C990BF011F9414241419B48C9B2FCF7EF
:1041C000FDF82A000A988ACA8AC020000C99126851
:1041D0000A600D9A8AC88AC242460E9B12689348AA
:1041E0001A60F26818990092B3687268FCF7A2FD31
:1041F00030000AF0BBFD20000AF0B8FD28000AF0EC
:10420000B5FD0722032130000AF0F2FE0322072148
:1042100020000AF0EDFE00957168B268F368189806
:104220000AF050FFE26828000092A36862681C99B7
:104230000BF0D2F8414241417D48C9B2FCF7BEF8CB
:104240002A000A988ACA8AC020000C9912680A605B
:104250000D9A8AC88AC242460E9B126875481A6037
:10426000F26818990092B3687268FCF763FD300039
:104270000AF07CFD20000AF079FD28000AF076FDA6
:104280000222092130000AF01FFE0922022120002B
:104290000AF01AFE00957168B268F36818980AF07F
:1042A00011FFE26828000092A36862681C990BF075
:1042B00093F8414241416048C9B2FCF77FF82A00B7
:1042C0000A988ACA8AC020000C9912680A600D9A5E
:1042D0008AC88AC242460E9B126858481A60F26821
:1042E00018990092B3687268FCF724FD30000AF058
:1042F0003DFD20000AF03AFD28000AF037FD0B22B0
:10430000062130000AF074FE06220B2120000AF07C
:104310006FFE00957168B268F36818980AF0D2FED3
:10432000E26828000092A36862681C990BF054F8B8
:10433000414241414248C9B2FCF740F82A000A987C
:104340008ACA8AC00C9912680A6022000D9989CA2B
:1043500089C10E9B12683B481A60F2681899009256
:10436000B3687268FCF7E6FC30000AF0FFFC20003E
:104370000AF0FCFC28000AF0F9FC032204213000BA
:104380000AF036FE0622032120000AF031FE0095D5
:104390007168B268F36818980AF094FEE268280021
:1043A0000092A36862681C990BF016F841424141E3
:1043B0002548C9B2FCF702F82A000A988ACA8AC0BE
:1043C0000C9912680A6022000D9989CA89C10E9B56
:1043D00012681E481A60F268189900927268B368F1
:1043E000FCF7A8FC30000AF0C1FC20000AF0BEFC7B
:1043F00028000AF0BBFCC82004F0AEF9064807F01C
:1044000087FEC82004F0A8F922E0C04630750110EC
:10441000647501109C7501102C680110C06B0110AF
:10442000D4750110F475011000760110207601108A
:104430002C7601104C760110587601107876011018
:1044400084760110A4760110B0760110D0760110A8
:10445000FE4807F05DFEFBF7A3FFFD4807F058FE9E
:10446000FC4807F055FE14A80AF078FC14AB1800BD
:1044700032008AC88AC25A460F981268026014A88D
:104480000AF06CFC220014AB83CB83C25B461B6832
:1044900014A813600AF062FC2A0014AB83CB83C219
:1044A0005B461B68C820136004F056F90123002204
:1044B000189319930121B26020000132F3600AF0D1
:1044C00003FD6A46200004958AC88AC200689246A5
:1044D0001060F368B268716818980AF0E7FF01305D
:1044E00041424141DC48C9B2FBF768FF30000AF0A5
:1044F0003DFC20000AF03AFC28000AF037FC0121BC
:10450000012230000AF0E0FC012300221C931D93DD
:104510002000A2606A46E36004958AC88AC25246B7
:10452000012313601F00B268F368716818980AF0DD
:10453000BDFF013041424141C848C9B2FBF73EFFCF
:1045400030000AF013FC20000AF010FC28000AF0EA
:104550000DFC0022189719971C971D97B260A26056
:1045600020006A46F760E76004958AC88AC2012382
:10457000524613607168002218981F000AF096FFD7
:10458000013041424141B648C9B2FBF717FF300044
:104590000AF0ECFB20000AF0E9FB28000AF0E6FB39
:1045A0000122012130000AF08FFC00221897199790
:1045B0000121F260200001320AF086FC6A462000E8
:1045C00004958AC88AC2524600681060F368B268CF
:1045D000716818980AF06AFF013041424141A148D0
:1045E000C9B2FBF7EBFE30000AF0C0FB20000AF076
:1045F000BDFB28000AF0BAFB0121012230000AF0BD
:1046000063FC012300221C931D932000E2606A4694
:1046100004958AC88AC2524600231360F368B268C0
:10462000716818980AF042FF0130414241418E48BA
:10463000C9B2FBF7C3FE30000AF098FB20000AF075
:1046400095FB28000AF092FB0122012130000AF0BC
:104650003BFC0121012220000AF036FC012300224C
:10466000189319931C93F2601D932000E2606A4630
:1046700004958AC88AC2002352461360B2687168E2
:1046800018980AF013FF0130414241417748C9B2FE
:10469000FBF794FE30000AF069FB20000AF066FB8D
:1046A00028000AF063FB012005214042189019916F
:1046B0000522043920000AF007FC6A462000049510
:1046C0008AC88AC2524600681060B268F36871688E
:1046D00018980AF0EBFE0130414241416448C9B2EA
:1046E000FBF76CFE30000AF041FB20000AF03EFBB5
:1046F000032003006A462100189008380495199099
:104700001C931D9089C989C2524609681160B2681C
:10471000F368716818980AF0C9FE013041424141BE
:104720005448C9B2FBF74AFE30000AF01FFB2000D4
:104730000AF01CFB03221C9200226B461D922200F1
:10474000049583CA83C3534612681A60B268F3683B
:10475000716818980AF0AAFE01304142414146486A
:10476000C9B2FBF72BFE30000AF000FB20000AF074
:10477000FDFA002205211C9223006A4604951D9132
:1047800083CB83C252461B681360F368B2687168BA
:1047900018980AF08BFE0130414241413748C9B2B6
:1047A000FBF70CFE30000AF0E1FA20000AF0DEFA16
:1047B0000622012130000AF01BFC01210122200009
:1047C0000AF016FC6A462300049583CB83C2524646
:1047D0001B681360F368B268716818980AF066FE87
:1047E0000130414241412648C9B2FBF7E7FD3000A4
:1047F0000AF0BCFA20000AF0B9FA012202213000C6
:104800000AF0F6FB0121012220000AF0F1FB6A46C2
:104810002300049583CB83C252461B681360F36860
:10482000B268716818980AF041FE01304142414176
:104830001448C9B2FBF7C2FD30000AF097FA200015
:104840000AF094FA012202211EE0C0460C66011013
:10485000CC770110A0660110B4730110D47301105D
:10486000F87301101C74011040740110647401107D
:10487000147801103C7801106878011090780110CC
:10488000B8780110E478011030000AF0B1FB012182
:10489000022220000AF0ACFB6A462300049583CB79
:1048A00083C252461B681360B268F3687168189837
:1048B0000AF0FCFD013041424141FE48C9B2FBF71C
:1048C0007DFD30000AF052FA20000AF04FFAC820AD
:1048D00003F042FFF84807F01BFCFBF761FDF748C7
:1048E00007F016FC14A80AF039FA320014AB83CB97
:1048F00083C25A460F981268026014A80AF02EFA72
:1049000014AB180022008AC88AC25846006810609A
:1049100014A80AF023FA14AB2A0018008AC88AC225
:10492000584600681060C82003F016FF01220121DC
:1049300030000AF05DFB0121012220000AF058FB43
:104940006A46200004958AC88AC2524600681060F0
:10495000F368B268716818980AF0A8FD41424141B5
:10496000D748C9B2FBF72AFD28000A9A8AC88AC22A
:104970000C9A0068106020000D998CC88CC14146CB
:104980000E9B0968CF481960F1680091B3681899C7
:104990007268FCF7DDFA30000AF0E8F920000AF04E
:1049A000E5F928000AF0E2F90322032130000AF0B9
:1049B0001FFB0322032120000AF01AFB6946230093
:1049C000049585CB85C151461B680B60B268F368BE
:1049D000716818980AF06AFD41424141BA48C9B26B
:1049E000FBF7ECFC28000A9B86C886C321000C9AC2
:1049F000006810600D988CC98CC040460E99006804
:104A00000860F168B1480091B36818997268FCF7C2
:104A10009FFA30000AF0AAF920000AF0A7F928004E
:104A20000AF0A4F90322072130000AF0E1FA032278
:104A3000072120000AF0DCFA6946200004958CC8A2
:104A40008CC1514600680860B268F36871681898B4
:104A50000AF02CFD414241419D48C9B2FBF7AEFC32
:104A600029000A9B85C985C30C9A09681160210039
:104A70000D988CC98CC043460E991B6895480B60F5
:104A8000F1680091B36818997268FCF761FA300018
:104A90000AF06CF920000AF069F928000AF066F9BA
:104AA0000222092130000AF00FFA02220921200017
:104AB0000AF00AFA69462300049585CB85C1514660
:104AC0001B680B60B268F368716818980AF0EEFC16
:104AD000414241418048C9B2FBF770FC29000A9B62
:104AE00085C985C34B4621000C9A1B6813600D983D
:104AF0008CC98CC00E9A096878481160F1680091E1
:104B000072681899B368FCF723FA30000AF02EF99E
:104B100020000AF02BF928000AF028F9C82003F039
:104B20001BFE654807F0F4FAC82003F015FE6C4838
:104B300007F0EEFAFBF734FC6A4807F0E9FA6A4836
:104B400007F0E6FA14A80AF009F914AB19002600D8
:104B50008CC98CC6594609685F4631602E0014A87E
:104B60000AF0FCF814A80EC80EC63F68C8203760CB
:104B700003F0F2FD002701232800012201211E007D
:104B80001C931D93E360A7600AF09EF9EB682099DF
:104B90000093AB686A6820000AF0EAFC01304142E9
:104BA00041415248C9B2FBF709FC20000AF0DEF887
:104BB00028000AF0DBF80122012120000AF084F924
:104BC00020962196EE60AF6000966A68002301216E
:104BD00020000AF0CDFC0130414241414448C9B2B5
:104BE000FBF7ECFB20000AF0C1F828000AF0BEF841
:104BF000209621961C96EE60AF601D96E660A76039
:104C000000966A680023012120000AF0B1FC0130FF
:104C1000414241413748C9B2FBF7D0FB20000AF0BE
:104C2000A5F828000AF0A2F80122012120000AF0CC
:104C30004BF92800012201211C961D96E7600AF01D
:104C400043F9EB6820990093AB686A6820000AF08A
:104C50008FFC0130414241412748C9B2FBF7AEFB0E
:104C600020000AF083F828000AF080F801220121D0
:104C700020000AF029F921962096EF600097AB6892
:104C80006A68012120000AF073FC01304142414171
:104C90001A48C9B2FBF792FB20000AF067F8280017
:104CA0000AF064F80122012120000AF00DF9280021
:104CB000012225E0187901102C680110C06B011049
:104CC0004C7901106C7901107879011098790110F4
:104CD000A4790110C4790110D0790110F079011084
:104CE0000C660110FC790110A0660110B47301106C
:104CF000D4730110F87301101C740110407401107A
:104D000001210AF0E1F8219620961C96EF601D968D
:104D1000E76000976A68AB68012120000AF028FC70
:104D2000013041424141FE48C9B2FBF747FB200038
:104D30000AF01CF828000AF019F8052101230E00DA
:104D400028005B421D91052204391C930AF0BCF82F
:104D5000E968200000916A68AB6820990AF008FCB5
:104D6000013041424141EF48C9B2FBF727FB200027
:104D700009F0FCFF280009F0F9FF05200322EB6889
:104D80004042219000932092AB681C921D906A686B
:104D9000032120000AF0ECFB013041424141E2488E
:104DA000C9B2FBF70BFB200009F0E0FF280009F077
:104DB000DDFF032220921C92EA68219700926A6824
:104DC000AB68032120001D970AF0D2FB013041425D
:104DD0004141D648C9B2FBF7F1FA200009F0C6FFFD
:104DE000280009F0C3FF20971D97EF6821960097D0
:104DF000AB686A68002120001C960AF0B9FB0130FC
:104E000041424141CA48C9B2FBF7D8FA200009F033
:104E1000ADFF280009F0AAFF0622012120000AF0B8
:104E2000E7F82800012201210AF0E2F8EF68209952
:104E30000097AB686A6820000AF09AFB0130414293
:104E40004141BC48C9B2FBF7B9FA200009F08EFF16
:104E5000280009F08BFF0122022120000AF0C8F887
:104E60002800012201210AF0C3F8EF682099009779
:104E7000AB686A6820000AF07BFB01304142414187
:104E8000AD48C9B2FBF79AFA200009F06FFF28007D
:104E900009F06CFF0122022120000AF0A9F8280085
:104EA000022201210AF0A4F8EF6820990097AB686C
:104EB0006A6820000AF05CFB0130414241419F4892
:104EC000C9B2FBF77BFA200009F050FF280009F077
:104ED0004DFFC82003F040FC994807F019F914AFC2
:104EE000FBF75EFA974818AE07F012F9380009F0A0
:104EF00035FF310014AF0DCF0DC10A970E913A68FE
:104F000014A80A6009F02AFF220014A88AC88AC2DD
:104F10000A9B1868106014A809F020FF2A0014A842
:104F20008AC88AC20A9B18681060C82003F014FC63
:104F30000122012130000AF05BF80122012120004A
:104F40000AF056F800957168B268F36818980AF08C
:104F5000B9F8E26828000092A36862681C990AF018
:104F600007FB414241417848C9B2FBF727FA2800C4
:104F700005A90D918CC88CC14A46200012688A464A
:104F80000A6001A90C918CC88CC1424612688B46FC
:104F90000A60F06818990090B36872686B48FBF774
:104FA000D7FF300009F0E2FE200009F0DFFE280004
:104FB00009F0DCFE0322032130000AF019F8032275
:104FC000032120000AF014F800957168B268F368B4
:104FD00018980AF077F8E0681C990090A3682800F8
:104FE00062680AF0C5FA414241415948C9B2FBF72B
:104FF000E5F928000D9A8AC88AC24B4650461B68BC
:10500000036020000C998CC88CC1434658461B682D
:105010000360F06818990090B36872684D48FBF718
:1050200097FF300009F0A2FE200009F09FFE280043
:1050300009F09CFE03220721300009F0D9FF03226A
:105040000721200009F0D4FF00957168B268F36869
:1050500018980AF037F8E0681C990090A3682800B7
:1050600062680AF085FA414241413B48C9B2FBF708
:10507000A5F928000D9A8AC88AC24B4650461B687B
:10508000036020000C998CC88CC1434658461B68AD
:105090000360F06818990090B36872682F48FBF7B6
:1050A00057FF300009F062FE200009F05FFE280083
:1050B00009F05CFE02220921300009F005FF0222FE
:1050C0000921200009F000FF00957168B268F368BB
:1050D000189809F0F7FFE0681C99009062682800B2
:1050E000A3680AF045FA414241411D48C9B2FBF7A5
:1050F00065F92B000D9886CB86C04846534600685C
:10510000186023000C9985CB85C140465B4600683A
:105110001860F368189900937268B36822E0C0467B
:1051200064740110147801103C7801106878011043
:1051300090780110B8780110E47801101879011006
:105140002C680110C06B01104C7901106C790110B2
:105150007879011098790110A4790110C4790110AF
:10516000D0790110FE48FBF7F3FE300009F0FEFD98
:10517000200009F0FBFD280009F0F8FDC82003F02D
:10518000EBFAF84806F0C4FFC82003F0E5FAF64849
:1051900006F0BEFFFBF704F9F44806F0B9FFF44847
:1051A00006F0B6FF14A809F0D9FD230014A886C89C
:1051B00086C30A9A1068186014A809F0CFFD2B0066
:1051C00014A886C886C30A9A10681860C82003F01D
:1051D000C3FA0123002228001C931D931700A2602C
:1051E00001210132E36009F06FFEE8682099009028
:1051F000AB686A6820000AF005FA0130414241417B
:10520000DC48C9B2FBF7DAF8200009F0AFFD28004E
:1052100009F0ACFD01220121200009F055FE012317
:1052200020932193EB60AF6000936A681F00012117
:10523000002320000AF0E6F9013041424141CE4806
:10524000C9B2FBF7BBF8200009F090FD280009F077
:105250008DFD0022209721971C97EF60AA601D9773
:10526000E760A26000976A680023012120000AF02D
:10527000C9F9013041424141C048C9B2FBF79EF82B
:10528000200009F073FD280009F070FD01220121C2
:10529000200009F019FE002228001C971D9701210B
:1052A0001700E260013209F00FFEE86820990090D3
:1052B000AB686A6820000AF0A5F90130414241411B
:1052C000AF48C9B2FBF77AF8200009F04FFD28007B
:1052D00009F04CFD01220121200009F0F5FD012318
:1052E00020932193EF600097AB686A68012120004A
:1052F0000AF088F9013041424141A248C9B2FBF7A6
:105300005DF8200009F032FD280009F02FFD012290
:105310000121200009F0D8FD28000122012109F017
:10532000D3FD0123209321931C93EF601D93E7602D
:105330000097AB686A68012120000AF063F9013028
:10534000414241419048C9B2FBF738F8200009F0CA
:105350000DFD280009F00AFD012149421C9106318A
:1053600028001D910522043909F0AEFDEB68209953
:1053700000936A68AB6820000AF044F901304142AA
:1053800041418248C9B2FBF719F8200009F0EEFC50
:10539000280009F0EBFC05200323404221901D90DA
:1053A000E868209300906A681F001C930321AB6893
:1053B00020000AF027F90130414241417448C9B246
:1053C000FAF7FCFF200009F0D1FC280009F0CEFC20
:1053D0000022E868209700902192AB681C971D92EC
:1053E000170003216A6820000AF00CF901304142DD
:1053F00041416848C9B2FAF7E1FF200009F0B6FC64
:10540000280009F0B3FC05210800EB6820972190E3
:105410000093AB686A681C91200000211D970AF078
:10542000F1F80130414241415B48C9B2FAF7C6FF89
:10543000200009F09BFC280009F098FC06220121BD
:10544000200009F0D5FD28000122012109F0D0FD3E
:10545000EB6820990093AB686A6820000AF0D2F8E4
:105460000130414241414D48C9B2FAF7A7FF20003F
:1054700009F07CFC280009F079FC012202212000BF
:1054800009F0B6FD28000122012109F0B1FDEB6809
:1054900020990093AB686A6820000AF0B3F80130E5
:1054A000414241413E48C9B2FAF788FF200009F065
:1054B0005DFC280009F05AFC01220221200009F0BD
:1054C00097FD28000222012109F092FDEB68209946
:1054D00000936A68AB6820000AF094F801304142FA
:1054E00041413048C9B2FAF769FF200009F03EFC9B
:1054F000280009F03BFCC82003F02EF9194806F0FB
:1055000007FEFAF74DFF284806F002FE14A809F03E
:1055100025FC330014AA83CA83C30A9A0E99136820
:1055200014A80B6009F01AFC230014AA83CA83C3D1
:105530000A9A14A812681A6009F010FC2B0014AA29
:1055400083CA83C30A9AC82012681A6003F004F958
:1055500001220121300009F04BFD012226E0C04666
:10556000F07901102C6801100C6601105C7A0110B2
:10557000A0660110B4730110D4730110F873011008
:105580001C7401104074011064740110C47A01107D
:10559000EC7A0110187B0110407B0110687B011030
:1055A000947B0110C87B0110C06B01100121200009
:1055B00009F01EFD00957168B268F368189809F04B
:1055C00081FDE368280000936268A3681C990AF0D3
:1055D00019F841424141FE48C9B2FAF7EFFE2B00EB
:1055E0000D9A83CB83C24A465346210012681A6043
:1055F0000C9A89C989C2434659461B68F5480B6015
:10560000F1680091B36818997268FBF753FD300098
:1056100009F0ACFB200009F0A9FB280009F0A6FB6B
:1056200003220321300009F0E3FC032203212000C0
:1056300009F0DEFC00957168B268F368189809F00B
:1056400041FDE168280000916268A3681C9909F097
:10565000D9FF41424141E048C9B2FAF7AFFE280004
:105660000D998CC88CC14B4650461B6803602000C6
:105670000C9A8AC88AC2434658461B680360F06881
:1056800018990090B3687268D448FBF713FD300096
:1056900009F06CFB200009F069FB280009F066FBAB
:1056A00003220721300009F0A3FC03220721200078
:1056B00009F09EFC00957168B268F368189809F0CB
:1056C00001FDE0681C99009062682800A36809F059
:1056D00099FF41424141C248C9B2FAF76FFE280022
:1056E0000D998CC88CC14B4650461B680360230043
:1056F0000C9A83CB83C240465B4600681860F3680F
:1057000018990093B3687268B648FBF7D3FC300071
:1057100009F02CFB200009F029FB280009F026FBEA
:1057200002220921300009F0CFFB022209212000CA
:1057300009F0CAFB00957168B268F368189809F01F
:10574000C1FCE368280000936268A3681C9909F013
:1057500059FF41424141A448C9B2FAF72FFE2B003C
:105760000D9985CB85C151461B680B6021000C9AB1
:1057700089C989C24246594612689C480A60F16844
:105780000091B36872681899FBF794FC300009F037
:10579000EDFA200009F0EAFA280009F0E7FAC8203B
:1057A00002F0DAFF924806F0B3FCC82002F0D4FF02
:1057B000904806F0ADFCFAF7F3FD8F4806F0A8FC20
:1057C00014AE8E4806F0A4FC3000260009F0C6FA9C
:1057D00014A98CC98CC60A9A1168316014AE3000C5
:1057E0002E0009F0BBFA14A98CC98CC60A9AC820ED
:1057F0001168316002F0B0FF0123002228001C93E1
:105800001D931700A260012101321E00E36009F020
:105810005BFB0095E368A26861681C9809F03CFF97
:105820000130414241417648C9B2FAF7C7FD200034
:1058300009F09CFA280009F099FA012201212000C0
:1058400009F042FB3A002800012101321C961D9606
:10585000E76009F039FB0095A268E36861681C986D
:1058600009F01AFF0130414241416648C9B2FAF7D6
:10587000A5FD200009F07AFA280009F077FA012046
:1058800040420100063100951D911C90A268E3681A
:10589000616809F001FF0130414241415A48C9B2F3
:1058A000FAF78CFD200009F061FA280009F05EFA91
:1058B00003231C931F00083B00951D93A268E36817
:1058C0006168032009F0E8FE0130414241414F4840
:1058D000C9B2FAF773FD200009F048FA280009F070
:1058E00045FA002200951C971D9217006168A26876
:1058F000E368032009F0D0FE013041424141444BAE
:10590000C9B218009A46FAF759FD200009F02EFA9C
:10591000280009F02BFA052100951D971C91A2681B
:10592000E3686168052009F0B7FE0130414241415A
:105930003848C9B2FAF742FD200009F017FA2800EA
:1059400009F014FAC82002F007FF294806F0E0FB2E
:10595000FAF726FD304806F0DBFB14A809F0FEF943
:10596000230014A886C886C30A9A1068186014A871
:1059700009F0F4F92B0014A886C886C30A9A1068A7
:105980001860C82002F0E8FE01220121200009F081
:105990002FFB0095A268E36861681C9809F07CFE03
:1059A000414241411D48C9B2FAF708FD2B000C984D
:1059B00086CB86C048465B4600681860E3681C9941
:1059C0000093A36862681648FBF722FC200029E0D8
:1059D000FC7B01101C7C0110287C0110487C01100C
:1059E000547C0110747C0110807C0110A07C01109B
:1059F0002C6801100C660110AC7C0110A06601102F
:105A0000B47301101C740110FC7C0110207D011086
:105A1000447D0110687D0110C06B01108C7D011068
:105A2000DC68011009F0A2F9280009F09FF90322AF
:105A30000321200009F0DCFA0095A268E3686168A0
:105A40001C9809F029FE41424141FD48C9B2FAF7CC
:105A5000B5FC2B000C9886CB86C049465B4609688E
:105A6000F8481960E3681C990093A3686268FBF723
:105A7000CFFB200009F07AF9280009F077F903221A
:105A80000721200009F0B4FA0095A268E368616874
:105A90001C9809F001FE41424141EB48C9B2FAF7B6
:105AA0008DFC2B000C9886CB86C049465B46096866
:105AB000E6481960E3681C990093A3686268FBF7E5
:105AC000A7FB200009F052F9280009F04FF9022243
:105AD0000921200009F0F8F90095A268E3686168DF
